:020000040800F2
:10000000E008002099040008DD010008DF01000875
:10001000E3010008E7010008EB0100080000000010
:10002000000000000000000000000000EF010008D8
:10003000F101000800000000F3010008F5010008CC
:10004000B3040008B3040008B3040008B3040008B4
:10005000B3040008B3040008B3040008B3040008A4
:10006000B3040008B3040008B3040008B304000894
:10007000B3040008B3040008B3040008B304000884
:10008000B3040008B3040008B3040008B304000874
:10009000B3040008B3040008B3040008B304000864
:1000A000B3040008B3040008B3040008B304000854
:1000B000D92C0008B3040008C12C0008B3040008C0
:1000C000B3040008B3040008B3040008B304000834
:1000D000B30400088D280008B3040008CB320008E0
:1000E000F3370008B3040008B304000800F002F876
:1000F00000F05FF80AA090E8000C82448344AAF163
:100100000107DA4501D100F054F8AFF2090EBAE860
:100110000F0013F0010F18BFFB1A43F0010318473B
:10012000F8A0000018A100000A444FF0000C10F8DD
:10013000013B13F0070408BF10F8014B1D1108BF65
:1001400010F8015B641E05D010F8016B641E01F805
:10015000016BF9D113F0080F1EBF10F8014BAD1C55
:100160000C1B09D16D1E58BF01F801CBFAD505E073
:1001700014F8016B01F8016B6D1EF9D59142D6D3CD
:10018000704700000023002400250026103A28BFF5
:1001900078C1FBD8520728BF30C148BF0B607047F9
:1001A000642907F04582002070471FB51FBD10B5B8
:1001B00010BD07F00BFC1146FFF7F7FF00F00CF93C
:1001C00007F029FC03B4FFF7F2FF03BC02F002FBC7
:1001D00030BF72B662B680F308887047704700BFC0
:1001E000FEE700BFFEE700BFFEE700BFFEE7704787
:1001F00070477047704700000CB5002001900090D8
:100200006C48006840F480306A49086000BF694863
:10021000006800F4003000900198401C01900098A4
:1002200018B90198B0F5A06FF1D16248006800F4E8
:10023000003010B10120009001E0002000900098F3
:10024000012843D15C48006840F010005A4908601A
:100250000846006820F0030008600846006840F087
:1002600002000860534840685249486008464068A8
:1002700048600846406840F480604860084640682E
:1002800020F47C1048600846406840F4E81048605C
:100290000846006840F08070086000BF454800686C
:1002A00000F000700028F9D04248406820F00300B8
:1002B000404948600846406840F00200486000BF7E
:1002C0003C48406800F00C000828F9D10CBD10B57E
:1002D000FFF792FF10BD10B53648006840F00100EE
:1002E000344908600846406834490840314948604C
:1002F00008460068324908402E49086008460068F0
:1003000020F4802008600846406820F4FE00486021
:100310004FF41F008860FFF7DAFF4FF000602949B3
:10032000086010BD10B5002100200022214B5B6841
:1003300003F00C0121B1042906D0082928D107E0D7
:10034000214B224C236027E01F4B204C236023E0ED
:10035000184B5B6803F47010164B5B6803F4803233
:10036000022303EB904022B9194B4343174C2360FF
:100370000DE0104B5B6803F4003323B1144B43438F
:10038000124C236003E0104B4343104C236003E006
:100390000D4B0E4C236000BF00BF064B5B68C3F3E0
:1003A00003130C4CE15C094B1B68CB40074C2360EA
:1003B00010BD000000100240002002400000FFF8C5
:1003C000FFFFF6FE08ED00E000127A0000000020BA
:1003D00000093D000400002002F034F84FF4E13041
:1003E00002F007FA0121254800F0CFFB0121244843
:1003F00000F0CBFB02F066FA022002F093F8002135
:1004000041F61F4002F02EFB4FF4165002F00EFF93
:1004100002F080FB02F0D0FB02F084FA02F072FCE2
:1004200006F0D5FA06F0E7FA06F0A7FF03F02CF87D
:1004300002F0F2FF20E01348006808F09BFD074639
:1004400008F0D4FD04461048006808F0CFFD0546CA
:100450000E48006808F0CAFD06462246294606F006
:10046000D8FE01200A49087000200A49087000BF20
:10047000074800780028FBD1DDE7000000043000C9
:1004800000023000340000204C0100204801002010
:1004900039000020380000200948804709480047FB
:1004A000FEE7FEE7FEE7FEE7FEE7FEE7FEE7FEE724
:1004B000FEE7FEE704480549054A064B7047000081
:1004C000D7020008ED000008E0020020E00800204C
:1004D000E0040020E004002010B50446FA488442FD
:1004E00008D10121401501F067FE0021601501F0DF
:1004F00063FE17E0F548844208D10121001501F0A0
:100500005BFE0021201501F057FE0BE0F04884420D
:1005100008D10121C80301F04FFE00214FF4004033
:1005200001F04AFE10BD30B502460020002350689D
:10053000E84C20400D790C6844EA052420435060C3
:100540009068E54C2040D1E902542C434D7944EAAF
:10055000450420439060D06A20F470000C7C641E37
:10056000E4B2234340EA0350D06230BD0021016071
:10057000017141718160C16001210174704721B135
:10058000826842F00102826003E0826822F0010288
:100590008260704721B1826842F48072826003E019
:1005A000826822F480728260704710B50023CBB25B
:1005B0001AB144681C43446002E044689C434460B0
:1005C00010BD816841F0080181607047014600203C
:1005D0008A6802F008020AB1012000E0002070479A
:1005E000816841F0040181607047014600208A68FB
:1005F00002F004020AB1012000E00020704721B19E
:10060000826842F4A002826003E0826822F4A002C1
:1006100082607047014600208A6802F480020AB1B5
:10062000012000E00020704710B50A460021002399
:10063000416821F46041531E41EA4331416010BDDD
:1006400021B1426842F40062426003E0426822F451
:10065000006242607047F0B504460D46002000215C
:10066000092D11DDE068A5F10A0606EB460707260D
:1006700006FA07F18843A5F10A0606EB460603FAD7
:1006800006F10843E0600CE0206905EB450707260A
:1006900006FA07F1884305EB450603FA06F108431D
:1006A0002061072A0FDA606B561E06EB86071F26AD
:1006B00006FA07F18843561E06EB860605FA06F190
:1006C0000843606322E00D2A0FDA206BD61F06EB89
:1006D00086071F2606FA07F18843D61F06EB860613
:1006E00005FA06F10843206310E0E06AA2F10D0666
:1006F00006EB86071F2606FA07F18843A2F10D06CE
:1007000006EB860605FA06F10843E062F0BD21B16A
:10071000826842F48012826003E0826822F48012D0
:10072000826070470146C86C80B2704766484C30A2
:100730000068704721B1426842F48062426003E081
:10074000426822F480624260704721B1426842F4FC
:100750008052426003E0426822F480524260704757
:100760000A460021816821F4E0411143816070470D
:1007700021B1826842F40042826003E0826822F480
:1007800000428260704721B1826842F402128260A6
:1007900003E0826822F40212826070470146002062
:1007A0008A6802F400120AB1012000E000207047BC
:1007B000F0B504461546002000220026092911DD67
:1007C000E068A1F10A0707EB470C072707FA0CF2CC
:1007D0009043A1F10A0707EB470703FA07F210431A
:1007E000E0600CE0206901EB410C072707FA0CF2EE
:1007F000904301EB410703FA07F210432061A06B1D
:10080000C0F30156EF1C06F1010CA7EB0C0707EB38
:10081000870C1F2707FA0CF29043EF1C06F1010C1E
:10082000A7EB0C0707EB870701FA07F21043A06359
:10083000F0BD10B50A4600210023816B21F4401160
:10084000531E41EA0351816310BD08B50023009394
:100850000090009B0B440093009B1A6008BD08B5F4
:10086000024600200090009201F12800009B1844ED
:1008700000900098006880B208BD0A4600214168D7
:10088000164B1940114341607047416282627047C4
:100890000A460021416821F01F0111434160704761
:1008A00040B109490831096841F40001064A08329B
:1008B000116007E004490831096821F40001024A87
:1008C00008321160704700000024014000280140F8
:1008D000003C0140FFFEF0FFFDF7F1FFFFFD3FFF91
:1008E0000246002013680B400BB1012000E00020FD
:1008F0007047CA430260704770B50246002000236B
:1009000000240B125568CEB205EA060415681D4096
:1009100015B10CB1012000E0002070BD00220A12C8
:10092000D34303607047000010B50446CC488442AE
:1009300008D10121042001F03FFC0021042001F036
:100940003BFC46E0C748844208D10121082001F061
:1009500033FC0021082001F02FFC3AE0C248844219
:1009600008D10121102001F027FC0021102001F006
:1009700023FC2EE0BD48844208D10121202001F053
:100980001BFC0021202001F017FC22E0B848844223
:1009900008D10121402001F00FFC0021402001F08E
:1009A0000BFC16E0B348844208D10121802001F0FD
:1009B00003FC0021802001F0FFFB0AE0AE488442E6
:1009C00007D10121801501F0F7FB0021A01501F0EE
:1009D000F3FB10BD10B50121084601F0EDFB00212D
:1009E000012001F0E9FB10BD2DE9F0410246002590
:1009F0000026002000230024002791F803C00CF0FB
:100A00000F0591F803C00CF0100CBCF1000F03D0DF
:100A100091F802C04CEA050591F800C0BCF1000F46
:100A200031D0146800202BE04FF0010C0CFA00F3D9
:100A3000B1F800C00CEA03069E4220D183004FF0BB
:100A40000F0C0CFA03F7BC4305FA03FC4CEA040450
:100A500091F803C0BCF1280F06D14FF0010C0CFA3D
:100A600000FCC2F814C00AE091F803C0BCF1480FC2
:100A700005D14FF0010C0CFA00FCC2F810C0401C6C
:100A80000828D1D31460B1F800C0BCF1FF0F34DDE9
:100A9000546800202EE000F1080C4FF0010808FA1D
:100AA0000CF3B1F800C00CEA03069E4221D183008A
:100AB0004FF00F0C0CFA03F7BC4305FA03FC4CEAA9
:100AC000040491F803C0BCF1280F05D100F1080C13
:100AD00008FA0CF8C2F8148091F803C0BCF1480F72
:100AE00007D100F1080C4FF0010808FA0CF8C2F821
:100AF0001080401C0828CED35460BDE8F0814FF62A
:100B0000FF710180022181700421C170704702468B
:100B1000002093680B400BB1012000E000207047DB
:100B20000146886880B2704702460020D3680B40B7
:100B30000BB1012000E0002070470146C86880B278
:100B4000704701617047416170470AB1016100E07F
:100B500041617047C16070474FF480320A4382613F
:100B60008161826182698269704702460020434B3D
:100B700018684FF68073184040EA021008433F4B54
:100B8000186070473E49C8617047F0B50A460023B7
:100B900000240021002500F00046B6F1004F02D1EC
:100BA000364EF16901E0354E7168C0F3034583B2FA
:100BB00000F44016B6F5401F08D121F070612F4EA9
:100BC000766826F070662D4F7E6012E000F4801685
:100BD000B6F5801F06D1032606FA05F4A14341F0BD
:100BE000706106E0460D360103FA06F6B14341F0A6
:100BF000706122B1460D360103FA06F6314300F06A
:100C00000046B6F1004F02D11C4EF16101E01B4ECF
:100C10007160F0BD30B500228B071C0F0F2303FA63
:100C200004F2164B08338C1053F824309343134CC2
:100C300008348D1044F8253023468C1053F82430A6
:100C40008C07240F00FA04F423430C4C08348D1055
:100C500044F8253030BD0A49DC3108607047000097
:100C600000080140000C0140001001400014014048
:100C700000180140001C014000200140000001401C
:100C80000000204210B50446FE48844208D10121EC
:100C9000C01401F091FA0021E01401F08DFAC4E0D3
:100CA000B4F1804F08D10121084601F092FA0021E9
:100CB000012001F08EFAB8E0F348844208D1012106
:100CC000022001F086FA0021022001F082FAACE055
:100CD000EE48844208D10121042001F07AFA002173
:100CE000042001F076FAA0E0E948844208D101210D
:100CF000082001F06EFA0021082001F06AFA94E061
:100D0000E448844208D10121102001F062FA002158
:100D1000102001F05EFA88E0DF48844208D101210A
:100D2000202001F056FA0021202001F052FA7CE048
:100D3000DA48844208D10121401401F03DFA002133
:100D4000601401F039FA70E0D548844209D10121DC
:100D5000C80401F031FA00214FF4002001F02CFA10
:100D600063E0D048844209D10121080501F024FA4A
:100D700000214FF4801001F01FFA56E0CA48844267
:100D800009D10121480501F017FA00214FF40010A4
:100D900001F012FA49E0C548844208D101214020FF
:100DA00001F017FA0021402001F013FA3DE0C0489D
:100DB000844208D10121802001F00BFA002180201B
:100DC00001F007FA31E0BB48844208D101218015C7
:100DD00001F0FFF90021A01501F0FBF925E0B6486C
:100DE000844209D10121080401F0E6F900214FF401
:100DF000803001F0E1F918E0B048844209D10121C6
:100E0000480401F0D9F900214FF4003001F0D4F981
:100E10000BE0AB48844208D10121880401F0CCF9F1
:100E200000214FF4802001F0C7F910BD0022028894
:100E3000944B98420ED0994B98420BD0B0F1804F12
:100E400008D0914B984205D0904B984202D0904BDD
:100E5000984204D14FF68F731A404B881A438D4B3A
:100E6000984207D08C4B984204D04FF6FF431A406B
:100E7000CB881A4302808B8883850B880385814B3E
:100E800098420BD0854B984208D08B4B984205D0A6
:100E90008A4B984202D08A4B984201D10B7A038642
:100EA00001238382704770B5002400220023058C43
:100EB0004FF6FE7635400584028C8388048B4FF60E
:100EC0008F752C40B51E2C400D882C43751E2A4072
:100ED0000D892A434D882A436A4DA8420BD06F4D95
:100EE000A84208D0744DA84205D0744DA84202D043
:100EF000734DA84213D14FF6F7752A404D892A4306
:100F00004FF6FB752A408D882A434FF6FF652B402C
:100F10004FF6FF552B408D892B43CD892B43838082
:100F20000483CD888586028470BD70B500240022BC
:100F30000023058C4FF6EF7635400584028C8388BC
:100F4000048B48F6FF752C404FF6FF452C400D886A
:100F50004FF6FF7606EA05252C434FF6DF752A404B
:100F60000D8906EA05152A434D8806EA05152A4328
:100F7000444DA84202D0494DA8421DD14FF67F757D
:100F80002A404D894FF6FF7606EA05152A434FF6AB
:100F9000BF752A408D8806EA05152A434FF6FF35AE
:100FA0002B404FF2FF752B408D8906EA85052B43B8
:100FB000CD8906EA85052B4383800483CD88058788
:100FC000028470BD70B5002400220023058C4FF60A
:100FD000FF6635400584028C8388848B4FF68F75BD
:100FE0002C404FF6FC752C400D882C434FF6FF55D6
:100FF0002A400D894FF6FF7606EA05252A434D88DB
:1010000006EA05252A431F4DA84202D0234DA842D7
:101010001DD14FF2FF752A404D894FF6FF7606EA43
:1010200005252A434FF6FF352A408D8806EA052517
:101030002A434EF6FF752B404DF6FF752B408D89E8
:1010400006EA05152B43CD8906EA05152B43838057
:101050008483CD888587028470BD70B5002200230B
:101060000024058C4EF6FF7635400584038C848879
:10107000828B48F6FF752A404FF6FF452A400D88BF
:1010800020E00000002C0140000400400008004067
:10109000000C0040001000400014004000340140EB
:1010A000004C014000500140005401400018004035
:1010B000001C00400020004000400140004401406E
:1010C000004801404FF6FF7606EA05252A434DF613
:1010D000FF752B400D8906EA05352B434D8806EA3E
:1010E00005352B43FA4DA84202D0FA4DA84208D14B
:1010F0004BF6FF752C408D894FF6FF7606EA851575
:101100002C4384808283CD88A0F84050038470BD36
:10111000828B4FF2FF331A408283828B4FF6FF732C
:1011200003EA01231A4382837047F0B50C46154643
:10113000002200210026078C4EF6FF7C07EA0C07F0
:101140000784828B018C4FF6FF7707EA043640F65E
:10115000FF473A404FF6FF7707EA05273A434FF635
:10116000FF7707EA03373A43D94FB8420ED0D94F39
:10117000B8420BD0B0F1804F08D0D74FB84205D05D
:10118000D64FB84202D0D64FB84206D14DF6FF77BF
:10119000394046F48057394305E047F6FF57394058
:1011A00044F48057394382830184F0BD828B4FF62B
:1011B000F3731A408283828B0A4382837047F0B5AF
:1011C0000C461546002200210026078C4FF6FF6CC6
:1011D00007EA0C070784828B018C4FF6FF7707EA3A
:1011E00004264FF60C773A404FF6FF7707EA0317CD
:1011F0002F433A43B64FB8420ED0B64FB8420BD049
:10120000B0F1804F08D0B44FB84205D0B34FB842C8
:1012100002D0B34FB84206D14FF6FF57394046F4DB
:101220008077394305E04FF2FF57394044F4807727
:10123000394382830184F0BD028B4FF2FF331A40A1
:101240000283028B4FF6FF7303EA01231A430283E2
:101250007047F0B50C461546002200210026078C89
:101260004FF6EF7C07EA0C070784028B018C4FF6E0
:10127000FF7707EA041640F6FF473A404FF6FF773C
:1012800007EA03373A434FF6FF7707EA05273A4361
:101290008F4FB8420ED08F4FB8420BD0B0F1804F75
:1012A00008D08D4FB84205D08C4FB84202D08C4F39
:1012B000B84206D14FF6DF77394046F01007394380
:1012C00005E04FF65F77394044F010073943028359
:1012D0000184F0BD028B4FF6F3731A400283028B38
:1012E0000A4302837047F0B50C46154600220021E0
:1012F000068C4FF6FE773E400684028B018C4FF63B
:101300000C7632407E1C06EA03162E433243704EA2
:10131000B0420ED06F4EB0420BD0B0F1804F08D02B
:101320006D4EB04205D06D4EB04202D06C4EB04210
:1013300006D14FF6FD76314044F00106314305E019
:101340004FF6F576314044F00106314302830184C3
:10135000F0BD70B505460C465D4885420ED05D482F
:1013600085420BD0B5F1804F08D05B48854205D04F
:101370005A48854202D05A48854200D100E000BF59
:10138000208850B92389A28861882846FFF7ABFFDF
:10139000E1882846FFF79EFF25E0208804280AD12F
:1013A0002389A28861882846FFF753FFE1882846F1
:1013B000FFF742FF17E0208808280AD12389A28876
:1013C00061882846FFF7FBFEE1882846FFF7EEFE1E
:1013D00009E02389A28861882846FFF7A6FEE188F4
:1013E0002846FFF795FE70BD2DE9F04105460C46F5
:1013F00000260127608808B9022600E00026A088A0
:10140000012801D1022700E001272088A0B9238903
:10141000A28861882846FFF766FFE1882846FFF723
:1014200059FF23893A4631462846FFF712FFE188E3
:101430002846FFF701FF13E02389A2886188284628
:10144000FFF707FFE1882846FFF7F6FE23893A46B3
:1014500031462846FFF747FFE1882846FFF73AFF65
:10146000BDE8F0810A884B881A438B881A43CB88E1
:101470001A430B891A434B891A438B891A43A0F8E4
:10148000442070474FF6FF71818000210180C180A8
:101490004180017270470021018041808180C180BC
:1014A000018141818181C18170470021018041809A
:1014B000012181800021C1800181704700210180CC
:1014C00041808180C180018141818181704700001C
:1014D000002C01400034014000040040000800409E
:1014E000000C004021B1028842F00102028004E0B9
:1014F00002884FF6FE731A400280704731B1B0F88F
:10150000442042F40042A0F8442005E0B0F8442012
:10151000C2F30E02A0F8442070471AB183890B432E
:10152000838102E083898B43838170478182704786
:1015300041EA0203A0F8483070471AB183890B438F
:10154000838102E083898B438381704701894FF651
:10155000F8721140018170470A46002101894FF657
:101560008F73194011430181704730B504460D4611
:1015700029462046FFF7F0FF208940F00700208130
:1015800030BD2DE9F04104460D4616461F46602D3C
:1015900006D13B46012231462046FFF75AFE05E0C0
:1015A0003B46012231462046FFF79DFE2946204654
:1015B000FFF7D2FF208940F007002081BDE8F081CD
:1015C00030B50C4600210189C9B24FF6FF7505EA16
:1015D0000325154325432943018130BD2DE9F04101
:1015E00005460E4617469846002443463A4631467D
:1015F0002846FFF7E5FF2C894FF6F870044044F0C9
:1016000007044FF68F70044044F070042C81BDE84D
:10161000F081F0B504460D4616461F463B4632465D
:1016200029462046FFF7CCFF208940F480402081E6
:10163000F0BD0185828270470A46002101884FF67D
:101640008F731940114301807047F0B50C46154661
:101650001E460021002200230189028B038C4FF6D5
:10166000F877394021434FF6FC473A4040F20117E2
:101670003A434FF6DD773B404FF6FF7707EA061710
:101680002F433B43018102830384F0BD0A460021BE
:10169000018B4FF68F7319401143018370470A463F
:1016A0000021018B48F6FF7319404FF6FF7303EAE0
:1016B00002231943018370470A460021818B4FF6AC
:1016C0008F7319401143818370470A460021818B33
:1016D00048F6FF7319404FF6FF7303EA02231943DC
:1016E0008183704721B1028842F08002028004E0C9
:1016F00002884FF67F731A400280704721B18288BA
:1017000042F00402828004E082884FF6FB731A40A4
:101710008280704721B1828842F00802828004E012
:1017200082884FF6F7731A408280704721B1828811
:1017300042F00102828004E082884FF6FE731A4074
:10174000828070470A460021018B4FF6F7731940DB
:101750001143018370470A460021018B4FF2FF734A
:1017600019404FF6FF7303EA0223194301837047C0
:101770000A460021818B4FF6F7731940114381838C
:1017800070470A460021818B4FF2FF7319404FF6D4
:10179000FF7303EA02231943818370470A4600213D
:1017A000018B4FF6FB7319401143018370470A46C2
:1017B0000021018B4FF6FF3319404FF6FF7303EA08
:1017C00002231943018370470A460021818B4FF69B
:1017D000FB7319401143818370470A460021818BB6
:1017E0004FF6FF3319404FF6FF7303EA0223194304
:1017F000818370470A460021018B4FF67F731940A1
:101800001143018370470A460021018BC1F30E0189
:101810004FF6FF7303EA02231943018370470A4618
:101820000021818B4FF67F731940114381837047EC
:101830000A460021818BC1F30E014FF6FF7303EAC4
:1018400002231943818370470A460021018C4FF619
:10185000FD7319401143018470470A460021018C31
:101860004FF6F77319401143018470470A4600216F
:10187000018C4FF6DF7319404FF6FF7303EA021332
:101880001943018470470A460021018C4FF67F738B
:1018900019404FF6FF7303EA02131943018470479E
:1018A0000A460021018C4FF6FF5319404FF6FF7393
:1018B00003EA02231943018470470A460021018C80
:1018C0004FF2FF7319404FF6FF7303EA02231943E7
:1018D000018470470A460021018C4DF6FF731940C0
:1018E0004FF6FF7303EA023319430184704730B5A2
:1018F000002301248C40A3B2048C9C430484048CF8
:1019000002FA01F5ADB22C43048430BD30B500239A
:1019100004248C40A3B2048C9C430484048C02FAFB
:1019200001F5ADB22C43048430BD70B503460020F0
:1019300000241846183001258D40ACB21D8CA543FB
:101940001D8409B1082909D100EB6100056825F063
:10195000700505600568154305600EE00D1FC5F3B1
:101960004E052844056825F4E045056005684FF6F6
:10197000FF7606EA02263543056070BD21B1028874
:1019800042F00202028004E002884FF6FD731A4022
:101990000280704721B1028842F00402028004E014
:1019A00002884FF6FB731A400280704721B182888B
:1019B00042F08002828004E082884FF67F731A40F2
:1019C0008280704702884FF6F7731A4002800288BF
:1019D0000A430280704782884FF68F731A408280D4
:1019E00082880A438280704702894FF6F8731A4052
:1019F000028102890A430281704702894FF67F7390
:101A00001A40028102890A4302817047818470472B
:101A1000818570478186704701877047818770474D
:101A2000A0F84010704702884FF6FF431A4002802A
:101A300002880A43028070470146888E704701463B
:101A4000088F70470146888F70470146B1F8400003
:101A500070470146888C70470146088D70470246E2
:101A60000020138A0B400BB1012000E000207047DA
:101A7000CA430282704730B502460020002300248A
:101A8000158A05EA0103958905EA010413B10CB131
:101A9000012000E0002030BDCA43028270470000F0
:101AA00010B50446FB48844209D10121880300F0A7
:101AB00083FB00214FF4804000F07EFB32E0F648CB
:101AC000844209D10121480400F083FB00214FF436
:101AD000003000F07EFB25E0F048844209D101216E
:101AE000880400F076FB00214FF4802000F071FBA9
:101AF00018E0EB48844209D10121C80400F069FBD9
:101B000000214FF4002000F064FB0BE0E548844224
:101B100008D10121080500F05CFB00214FF4801082
:101B200000F057FB10BD2DE9F04786B005460E4684
:101B30000024A24600BFA1460027B08900B100BF23
:101B40002F462C8A4CF6FF700440F08804432C8208
:101B5000AC894EF6F3100440B0883189084371898E
:101B600008430443AC81AC8A4FF6FF400440B0897F
:101B70000443AC8201A800F098FAC648874202D11B
:101B8000DDF810A001E0DDF80CA0A88900F4004009
:101B900040B10AEBCA0000EB0A1031684900B0FB03
:101BA000F1F807E00AEBCA0000EB0A10316889007F
:101BB000B0FBF1F86420B8FBF0F0040120096421C7
:101BC00001FB1089A88900F4004040B1322000EBED
:101BD000C900B0FBF1F000F00700044308E0322038
:101BE00000EB09106421B0FBF1F000F00F0004439A
:101BF0002C8106B0BDE8F0874FF41651016000213A
:101C00008180C18001810C21418100218181704747
:101C100010B502460020108A4FF2FF0318400B88CF
:101C20004C8823438C882343CC8823431843108259
:101C300010BD0021018041808180C180704721B1A9
:101C4000828942F40052828104E082894DF6FF735A
:101C50001A4082817047F0B5034600240026002513
:101C6000002040F66A17B94200D100BF1846C1F300
:101C7000421401F01F06012707FA06F5012C01D1D5
:101C80000C3004E0022C01D1103000E014301AB105
:101C900007682F43076002E00768AF430760F0BDA5
:101CA0001AB1838A0B43838202E0838A8B43838247
:101CB0007047028A4FF6F0731A400282028A0A4382
:101CC0000282704782894FF2FF731A4082818289B3
:101CD0000A438281704721B1828942F002028281E7
:101CE00004E082894FF6FD731A4082817047028AB0
:101CF0004FF6DF731A400282028A0A43028270475B
:101D000021B1028A42F48042028204E0028A4BF648
:101D1000FF731A4002827047C1F308028280704745
:101D200001468888C0F308007047818941F00101AD
:101D300081817047028BD2B20283028B42EA012278
:101D400002837047028B02F47F420283028B0A43B4
:101D50000283704721B1828A42F02002828204E02D
:101D6000828A4FF6DF731A408282704721B1828ADD
:101D700042F01002828204E0828A4FF6EF731A402A
:101D80008282704721B1828A42F00802828204E096
:101D9000828A4FF6F7731A408282704721B1828996
:101DA00042F40042828103E08289C2F30E02828102
:101DB000704721B1828A42F40062828204E0828A02
:101DC0004FF2FF731A4082827047828A4FF6FB738C
:101DD0001A408282828A0A438282704721B1828AB3
:101DE00042F00202828204E0828A4FF6FD731A40BA
:101DF0008282704702460020B1F5007F00D100BF0B
:101E000013880B400BB1012000E00020704701F463
:101E10000072B2F5007F00D100BFCA430280704754
:101E200070B50246002400230025002040F66A1603
:101E3000B14200D100BFC1F3421501F01F030126DA
:101E400006FA03F3012D02D19689334006E0022DF4
:101E500002D1168A334001E0968A33400C120126E3
:101E600006FA04F41688344013B10CB1012000E0E6
:101E7000002070BD10B50022002340F66A14A14274
:101E800000D100BF0A1201249440A3B2DC430480B5
:101E900010BD0000003801400044004000480040F0
:101EA000004C004000500040DF48006840F0010056
:101EB000DD49086008464068DC490840DA49486066
:101EC00008460068DA490840D749086008460068B3
:101ED00020F4802008600846406820F4FE00486036
:101EE0004FF41F0088607047CF49096821F48031A2
:101EF000CD4A11601146096821F480211160B0F5C6
:101F0000803F03D0B0F5802F0ED106E0C6490968A6
:101F100041F48031C44A116007E0C349096841F4C3
:101F2000A021C14A116000E000BF00BF704710B59A
:101F300001460022002300204A11012A02D1BA4C96
:101F4000236806E0022A02D1B74C236A01E0B64CAE
:101F5000636A01F01F02012494401C400CB101206F
:101F600000E0002010BD38B50020009000240025BE
:101F700000BF3120FFF7DBFF05460098401C0090B2
:101F80000098B0F5A06F01D0002DF2D03120FFF7FE
:101F9000CEFF08B1012400E00024204638BD0146F0
:101FA0000020A14A106820F0F80040EAC10010604B
:101FB0007047A04908607047024600209A4B586855
:101FC00020F47C1042EA01031843974B5860704795
:101FD00098490866704701460020934A506820F0EF
:101FE00003000843506070478F48406800F00C00C1
:101FF0007047014600208C4A506820F0F0000843EA
:102000005060704701460020874A506820F4E06025
:1020100008435060704701460020834A506820F40E
:10202000605040EAC1005060704729B17E4A527A40
:1020300002437D4B5A7204E07B4A527A82437A4BC8
:102040005A7270477B49D8310860704701460020BA
:10205000754A506820F440400843506070470021A2
:10206000714A20321170704A82F82010012802D083
:1020700004280AD104E001216B4A2032117005E0E6
:102080000521694A2032117000E000BF00BF70478F
:102090006949086070476449096A0143624A1162EC
:1020A0007047654944390860704730B50021002207
:1020B000002400235C4D6D6805F00C0121B104295A
:1020C00005D0082923D105E05C4D056022E05B4D79
:1020D00005601FE0544D6D6805F47012524D6D6837
:1020E00005F48034022505EB92421CB9544D55434A
:1020F00005600BE04C4D6D6805F400351DB1504D89
:102100005543056002E04D4D5543056002E04B4DDF
:10211000056000BF00BF444D6D6805F0F00109097E
:10212000484D6B5C0568DD4045603F4D6D6805F4CA
:10213000E061090A434D6B5C4568DD4085603A4DBE
:102140006D6805F46051C90A3E4D6B5C4568DD4021
:10215000C560354D6D6805F44041890B3A4D6B5CA7
:10216000C568B5FBF3F5056130BD29B12E4A52694A
:1021700002432D4B5A6104E02B4A526982432A4B99
:102180005A61704729B1284A92690243264B9A61E5
:1021900004E0254A92698243234B9A61704729B132
:1021A000214AD2690243204BDA6104E01E4AD26917
:1021B00082431D4BDA61704729B11B4AD268024342
:1021C000194BDA6004E0184AD2688243164BDA6091
:1021D000704729B1144A12690243134B1A6104E093
:1021E000114A12698243104B1A61704712494039F3
:1021F000086070470F49C86470470B49C871704741
:102200000948406A40F080700749486270470146BB
:102210000020054A92680A400AB1012000E000202F
:102220007047014988727047001002400000FFF8B3
:10223000FFFFF6FE000042428004424200127A0094
:1022400000093D003A0000204A00002031490143C6
:10225000314A1160704770B5002100230F22C47805
:1022600004B32D4C246804F4E064C4F5E064210A4E
:10227000C1F10403CA40447804FA03F1847814409D
:1022800021430901254C0678A155047804F01F0567
:102290000124AC4005786D11AD0005F1E025C5F8CD
:1022A000004109E0047804F01F050124AC401C4DF6
:1022B0000678761145F8264070BD1A4A0A40024356
:1022C000154B1B1F1A60704739B1134A121D126853
:1022D0000243114B1B1D1A6006E00F4A121D1268C3
:1022E00082430D4B1B1D1A607047042808D14FF024
:1022F000E021096941F004014FF0E022116107E09B
:102300004FF0E021096921F004014FF0E022116152
:10231000704700000000FA050CED00E000E400E06A
:1023200080E100E080FFFF1F002044490860091D94
:102330000860091D0860091D086041483F491431C3
:102340000860704700213D498279002A3AD00A4648
:10235000126803689A430B461A600A1D12680368E4
:102360009A430B1D1A60027911440A6803681A43E4
:102370000A60324A0832126803689A432F4B0833C6
:102380001A601A1D126803689A432C4B0C331A60AA
:102390004279102A0ED11A1F126803681A43274B7C
:1023A00008331A601A1D126803681A43234B0C3352
:1023B0001A600DE02149427911440A6803681A4302
:1023C0000A6005E0027911440A6803689A430A60CA
:1023D00070470021016001710C2141710021817160
:1023E00070471649103109680143144A10321160D0
:1023F000704701460020114A143212680A400AB19F
:10240000012000E0002070470C491431086070473B
:10241000014600200022094B1B6803EA0102074B1A
:1024200014331B680B4013B10AB1012000E00020F7
:1024300070470249143108607047000000040140F1
:10244000FFFF0F0010B56FF00400FFF74EFF2E489E
:1024500000682E49B0FBF1F02D490870084600785D
:1024600000EB4001C1EBC0104FF6FF7101EAC00064
:102470002849088010BD0146254A12784A434FF08A
:10248000E0235A6100229A611A46126942F0010261
:102490001A6100BF4FF0E022106900F001021AB18A
:1024A00000F48032002AF5D04FF0E022126922F0C9
:1024B00001024FF0E0231A6100229A617047014641
:1024C000144A12884A434FF0E0235A6100229A616D
:1024D0001A46126942F001021A6100BF4FF0E02271
:1024E000106900F001021AB100F48032002AF5D020
:1024F0004FF0E022126922F001024FF0E0231A614E
:1025000000229A61704700000000002000127A004B
:102510004E00002050000020A34A0A400243A34B73
:102520001A6070470146072323EA010212029F4BFB
:102530001B1D18684FF6FF0318409D4B18431043AE
:102540009A4B1B1D186070472DE9F04107468846DD
:1025500014461D462846FFF7E5FFC5F1040007FABB
:1025600000F60F20284100EA0800064306F00F0697
:10257000E21704EBD2625211920002F1E022D2F88B
:1025800000212146E31704EBD3635B11A4EB431C4A
:10259000012303FA0CF31A432046E31704EBD36339
:1025A0005B119B0003F1E023C3F800218148005D2B
:1025B00040EA06107F490855BDE8F08170B5044631
:1025C0000B46CE1701EB9676C6F38700CE1701EBCC
:1025D0009676B610A1EB8606B606350E764B9B694D
:1025E00043F00103744EB3614FEAB63353F8203021
:1025F0000F26AE40B343714E46F82030334653F8B1
:10260000203004FA05F61E436C4B43F820606C4BF7
:102610001B6801268E403343694E336002F001038C
:1026200043B1674B0C331B6801268E403343644E25
:102630000C36336002F0020343B1614B08331E686D
:1026400001238B401E435E4B08331E6070BD00B5F6
:10265000002059490861C860142048610020886141
:10266000C8610846006840F00100086008464068FC
:10267000544908405049486008460068524908409B
:102680004D4908600846006820F48020086008462C
:10269000406820F4FE0048600020886000214FF070
:1026A0000060FFF739FF00BD10B5404808300068F2
:1026B00040F004003D49083108603F48C06940F0DF
:1026C00080503D49C8614148406840F480703F49AE
:1026D00048600846006840F004000860084600684A
:1026E00040F002000860FDF773FD10BD3048001D8A
:1026F0002E49091D08607047014649062E4A926915
:1027000042F001022C4B9A612C4A083A526822F09E
:10271000E0622A4B083B5A601A4652680A435A60E4
:10272000704730B504460025FFF791FF2248006846
:1027300040F480302049086000BF1F480068400C0A
:102740000028FAD04FF480601B494860A01EC4B234
:102750000846406840EA844048600846406840F4C3
:10276000803048601A48006840F03200184908601C
:102770001148006840F080700F49086000BF0E48A3
:102780000068400E0028FAD00B48406840F0020074
:102790000949486005E008484068C0F3870505F02E
:1027A0000305022DF7D130BD80FFFF1F08ED00E0CB
:1027B0000000FA0500E400E00010024008000140BB
:1027C000000401400000FFF8FFFFF6FE007000402B
:1027D00000200240014600BF704700BF344A128803
:1027E00002F04002002AF9D0C2B2314B1B1D1A8000
:1027F000704710B586B00446012144F20400FFF78B
:10280000C1FC4FF40070ADF8140003208DF81600E1
:1028100018208DF8170005A92648FEF7E5F84FF4B3
:102820008060ADF8140004208DF8170005A9214838
:10283000FEF7DAF825208DF8000000208DF8010061
:1028400002208DF8020001208DF803006846FFF792
:1028500002FD01940020ADF80800ADF80A00ADF8C3
:102860000C00ADF810000C20ADF80E0001A91248C4
:10287000FFF759F9012240F225510F48FFF7EBF914
:1028800001210D48FFF7DBF906B010BD10B540F28D
:1028900025510948FFF7C4FA40B140F225510648D6
:1028A000FFF7E8FA0549064804F05AFB10BD00009E
:1028B0000048004000080140003801405401002059
:1028C0005001002008B501210420FFF75BFC102017
:1028D000ADF800008DF8030003208DF80200694672
:1028E0000C48FEF781F808BD18B900210A4A1160AA
:1028F0000FE00A490968491C084A1160814208D161
:1029000005490968C943064AC2F890110021034AE3
:1029100011607047000801409001214258000020DA
:102920000000214200B587B001214FF40170FFF78C
:1029300029FC4FF40040FFF789FB4020ADF804006C
:1029400000208DF8070001A93648FEF74DF83648FB
:10295000FDF7C2FD002002908DF80C008DF80D00EF
:102960004FF4602004900020059001208DF818009D
:1029700002A92D48FDF7D7FD01212B48FDF7FFFDEA
:102980002948FDF71EFE00BF2748FDF71FFE00285F
:10299000FAD12548FDF724FE00BF2348FDF725FEA8
:1029A0000028FAD107B000BD10B504460723012264
:1029B00021461D48FDF74FFE01211B48FDF71FFE74
:1029C00000BF02211848FDF78BFF0028F9D01648F8
:1029D000FDF7A8FE10BD2DE9F04F85B00620FFF7EA
:1029E000E3FF019005F048FE4FF066320F4BCDE952
:1029F000020105F055FE804600220D4B05F050FE09
:102A0000064600220B4B05F04BFE044600220A4B03
:102A100005F094FC824605F0E9FD0490049805B0A9
:102A2000BDE8F08F000801400024014066660A40BE
:102A300000002640000059400000B04008B50121C8
:102A40000820FFF79FFB4FF47040ADF80000102006
:102A50008DF8030003208DF8020069462A48FDF72F
:102A6000C3FF08BD30B589B005460C46FFF7E6FF49
:102A70000121C802FFF786FB01210420FFF782FB3A
:102A80004FF41060ADF8200018208DF823000320CB
:102A90008DF8220008A91D48FDF7A6FFADF81850D3
:102AA000ADF814400020ADF81A00ADF8160005A9E5
:102AB0001748FEF7BBF96020ADF804000120ADF81F
:102AC00006000020ADF80A00ADF80C0001A910487E
:102AD000FEF7E9F901A90E48FEF7BFFA01210C48FB
:102AE000FEF70CFD08210A48FEF72CFE08210848D5
:102AF000FEF747FE01210648FEF7F4FD01210448D8
:102B0000FEF7F0FC09B030BD000C014000080140A8
:102B1000002C014000B587B001210846FFF73FFBBC
:102B200001210420FFF72EFB0320ADF80000042054
:102B30008DF8030069466E48FDF756FF04A8FEF7BE
:102B4000A1FC0020ADF810004FF6FF70ADF81400A6
:102B50000020ADF81600ADF8120004A94FF0804037
:102B6000FEF764F900231A4603214FF08040FEF778
:102B70006CFD01A8FEF799FC0A20ADF80C0001A934
:102B80004007FEF7E6FB01218807FEF771FF0122EF
:102B900011469007FEF7C1FC00214FF08040FEF780
:102BA00035FF47F6FF704FF0804188840121880788
:102BB000FEF798FC07B000BD00B587B001210420E6
:102BC000FFF7EDFA01210820FFF7DCFAC020ADF88D
:102BD000000004208DF8030069464648FDF704FF15
:102BE00004A8FEF74FFC0020ADF810004FF6FF7070
:102BF000ADF814000020ADF81600ADF8120004A9DD
:102C00003D48FEF713F900231A4603213A48FEF720
:102C10001CFD01A8FEF749FC0A20ADF80C0001A933
:102C20003548FEF796FB01213348FEF721FF0122CC
:102C300011463148FEF771FC00212F48FEF7E6FEF1
:102C400047F6FF702C492431088001212A48FEF7FD
:102C500049FC07B000BD01468A8CA2F5FE42FF3A4E
:102C600010B247F6FF728A84704710B502212248DD
:102C7000FEF701FF58B102211F48FEF70DFF1E4865
:102C8000FFF7E9FF1D49096808441C4908601B4813
:102C9000006810BD10B502214807FEF7ECFE60B1D8
:102CA00002214807FEF7F8FE4FF08040FFF7D3FF00
:102CB000134909680844124908601148006810BDAA
:102CC0000D48103000880C481030008820F00100BA
:102CD00009491031088070474FF08040008A4FF05A
:102CE0008040008A20F001004FF080410882704748
:102CF00000080140000C0140000800405C0000207A
:102D00006000002008B501210820FFF73BFA4FF4CE
:102D10004070ADF8000010208DF8030003208DF8FE
:102D200002006946F748FDF75FFE08BD10B5F5489B
:102D3000001D006820F0F000F249091D08600846F7
:102D4000006840F0300008600120EF490860EF485B
:102D5000D0F8240108B9002010BD0120EA49091F5C
:102D60000860FFF788FB0020E849C1F8A401E648A5
:102D70008038006808B10020EEE70120FFF77BFBF8
:102D80000020E149091F08600120E5E710B5DD4892
:102D9000001D006820F0F000DA49091D08600846AF
:102DA000006840F0300008600020D749091F086023
:102DB000D649C1F8A4010120FFF75DFB0120D249EB
:102DC000091F0860D149C1F8A401FFF754FB10BDE9
:102DD00010B50024CB48001D006820F0F000C94960
:102DE000091D08600846006840F080000860012066
:102DF000C5490860FFF73FFB0120C449C1F8A001A5
:102E0000FFF739FB0AE0601CC4B2322C03DDFFF788
:102E1000BDFF002010BD0120FFF72DFBBA48803810
:102E200000680028EFD1B849091F08600120F1E7C8
:102E300010B50020B449091F0860B248001D0068A1
:102E400020F0F000AF49091D08600846006840F016
:102E5000300008600020AD49C1F8A4010120FFF74F
:102E60000AFB0120A849091F0860FFF704FB0020A6
:102E7000A649C1F8A00110BD10B50020A249091F44
:102E80000860A048001D006820F0F0009D49091D61
:102E900008600846006840F03000086001209B4947
:102EA000C1F8A401FFF7E7FA01209749091F08605C
:102EB000FFF7E1FA00209549C1F8A00110BD70B5F7
:102EC00004469048001D006820F0F0008D49091D5F
:102ED00008600846006840F03000086000208A4919
:102EE000091F0860002516E0E009874908606006B0
:102EF000040E0120FFF7BFFA01208449C1F8A001A8
:102F0000FFF7B9FA00208049091F08600120FFF788
:102F1000B2FA681CC5B2082DE6DB70BD2DE9F041A0
:102F200005460E4617469846FFF700FF10B90120E8
:102F3000BDE8F0816906080EFFF7C1FFFFF748FF03
:102F400018B9FFF723FF0120F2E73046FFF7B7FF7C
:102F5000FFF73EFF00240BE018F80400FFF7AFFF77
:102F6000FFF736FF18B9FFF711FF0020E0E7641CF8
:102F7000BC42F1DBFFF70AFF0020D9E770B5054638
:102F800000246048001D006820F0F0005D49091D24
:102F900008600846006840F080000860002617E0DE
:102FA00000205949091F08600220FFF764FA012038
:102FB0005649C1F8A0016006040E534880380068E5
:102FC00008B1601CC4B20220FFF755FA701CC6B2EB
:102FD000082EE5DB15B1FFF72BFF01E0FFF74CFFF3
:102FE000204670BD2DE9F04106460F4614461D46A9
:102FF000FFF79CFE10B90120BDE8F0817106080EB4
:10300000FFF75DFFFFF7E4FE18B9FFF7BFFE0120F1
:10301000F2E73846FFF753FFFFF7DAFEFFF786FEC9
:10302000012101EB4601C8B2FFF749FFFFF7D0FECF
:103030000DE0012C04D10020FFF7A0FF287003E071
:103040000120FFF79BFF28706D1C601EC4B2002C8E
:10305000EFD1FFF79BFE0020CEE770B505460E4688
:103060000024FFF763FE2846FFF729FF641CFFF7E3
:10307000AFFE3046FFF723FF641CFFF7A9FEFFF702
:1030800055FE691CC8B2FFF71AFF641CFFF7A0FECB
:103090000020FFF773FF0446FFF778FE204670BD5F
:1030A0002DE9F0410746884615461E460024FFF7E5
:1030B0003DFE3846FFF703FFFFF78AFE4046FFF765
:1030C000FEFEFFF785FEFFF731FE791CC8B2FFF761
:1030D000F6FEFFF77DFE00BF0DE0681EA04204D0A3
:1030E0000120FFF74BFF305503E00020FFF746FFBC
:1030F0003055601CC4B2AC42EFDBFFF747FE204600
:10310000BDE8F081000C0140A481214200802142F1
:103110002DE9F04180460D4616461F460024FFF774
:1031200005FE4046FFF7CBFEFFF752FE2846FFF7AD
:10313000C6FEFFF74DFE00BF06E0385DFFF7BFFE9D
:10314000FFF746FE601CC4B2B442F6DBFFF71EFE7A
:103150000120BDE8F08170B505460E4614463146A3
:103160002846FFF77AFF2070012070BD37B504466E
:103170000D4602AB012229462046FFF7C9FF3EBD9E
:103180002DE9F8430746884614461D46089E6A46C0
:1031900041463846FFF7DFFF28B3601CFF2101FAE4
:1031A00000F0C4F108012944491EFF220A411043DE
:1031B00000F0FF09C5F1080006FA00F0C6B2C4F13C
:1031C000070006419DF8000000EA090000909DF804
:1031D0000000304300909DF8002041463846FFF73C
:1031E000C5FFBDE8F8830020FBE7F8B506460F46AB
:1031F00014461D466A4639463046FFF7ACFF2DB1EE
:103200000120A0409DF80010084305E00120A040E7
:103210009DF8001021EA0000C0B200909DF8002047
:1032200039463046FFF7A2FFF8BD000010B586B062
:10323000044601210820FEF7A5FF01218804FEF7BE
:10324000AEFF4FF48060ADF8140003208DF8160037
:1032500018208DF8170005A96648FDF7C5FB4FF447
:103260000060ADF8140004208DF8170005A961482E
:10327000FDF7BAFB27208DF8000000208DF8010033
:1032800001208DF802008DF803006846FEF7E3FF89
:1032900001940020ADF80800ADF80A00ADF80C006C
:1032A000ADF810000C20ADF80E0001A95248FEF751
:1032B0003AFC012240F225514F48FEF7CCFC012197
:1032C0004D48FEF7BCFC06B010BD10B540F22551CC
:1032D0004948FEF7A5FD002832D04748FEF720FDFB
:1032E00046490860084600684A280AD144480078E0
:1032F000022803D101204249087002E0022040491F
:1033000008703E4800684B2809D13E48007818B93B
:1033100001203C49087002E000203A490870374813
:1033200000680A2864DD354800685A2809D1002061
:1033300035490870354908703549087035490870B5
:1033400056E02E480068412807D02C4800684228E3
:1033500003D02A48006848280AD101202A49087069
:1033600000202A4908702A4908702A4908703FE05D
:1033700022480068442807D020480068452803D028
:103380001E48006846280BD100201F490870012004
:103390001E49087000201E4908701E49087027E069
:1033A0001648006843280AD10020174908701749B9
:1033B00008701749087001201649087018E00F4876
:1033C000006847280BD100200F4908700F4908708A
:1033D00001200F49087000200E49087008E0002005
:1033E00009490870094908700949087009490870B5
:1033F00010BD0000000C014000480040800000208B
:10340000190000201A0000201500002016000020DE
:1034100017000020180000201FB501210846FEF704
:10342000B1FE01210420FEF7ADFE4FF48050ADF84F
:103430000C0048208DF80F0003A91248FDF7D4FABC
:103440000C210020FDF7E6FB4FF480500190002096
:103450008DF808000C208DF8090001208DF80A0075
:1034600001A8FEF76FFF28208DF8000002208DF8DC
:10347000010001208DF802008DF803006846FEF778
:10348000EAFE1FBD0008014008B501210420FEF737
:1034900079FE2020ADF8000048208DF80300694631
:1034A0004B48FDF7A1FA08BD01464A48006828B913
:1034B00049480088401C484A108002E00020464AE3
:1034C00010804448006828B94448007810B90120A9
:1034D000424A107042480078B0B94048007801284C
:1034E00007D140480078401C3E4A107001203C4AF9
:1034F00010703C480078022806D10020394A10702C
:10350000394A10800220704732480068012804D1EF
:103510000020324A1070324A107032480078012878
:103520001CD131480088401C2F4A1080104600886A
:1035300088420ADD28480088884206DA0020294AA5
:103540001070294A10800120DDE723480088884256
:1035500004DD0020234A1070234A10800020D2E7A7
:103560002248007838B11B48006820B900201F4964
:1035700008700120704717480068012801D11B49D5
:1035800008700020F6E71A48008840B91148006822
:1035900028B918480088401C1649088002E000201D
:1035A0001449088013480088C82807DD0120104905
:1035B000088000200F490880012070470C480088CF
:1035C000012802D100200A4908800020F5E7000008
:1035D00000080140140121428A00002084000020DC
:1035E0008500002086000020880000208C0000203C
:1035F000900000208E0000200146002901DA484298
:1036000000E00846704700B503460A46002B07DD78
:103610000020E04908600120DF49C1F8B80106E058
:103620000120DC4908600020DB49C1F8B8011846D8
:10363000FFF7E2FFD9490880002A08DD0020D549BC
:10364000083908600120D449C1F8B00107E0012021
:10365000D049083908600020CF49C1F8B0011046B0
:10366000FFF7CAFFCD490C31088000BD014600209C
:1036700040F2564291420EDA01200022C54B1B1F38
:103680001A60C54BC3F8BC21C24B083B1A60C24B41
:10369000C3F8B02100E00020704741F6F420C04993
:1036A00009684242914202DA4142BD4A1160BC4976
:1036B0000968814201DDBA490860BA490968424295
:1036C000914202DA4142B74A1160B6490968814223
:1036D00001DDB44908607047B348007801285DD126
:1036E000B2480078012814D1B1480078022805D1E9
:1036F000C820B0490860B04908604FE0AC48007885
:1037000001284BD14FF4AF70AA490860AA4908605C
:1037100044E0AA480078012814D1A548007802287E
:1037200006D16FF0C700A3490860A349086035E0DF
:103730009F480078012831D1A1489E4908609E49E0
:1037400008602BE09F48007801280FD19848007846
:10375000022803D09648007801281FD16FF063003B
:103760009449086064209449086017E096480078FE
:1037700001280ED18E480078022803D08C480078AA
:1037800001280BD164208B49086040428A490860B7
:1037900004E000208749086087490860704710B539
:1037A00000243220FFF780FE0446012C05D14FF49F
:1037B000FA70804908608049086010BD10B5044661
:1037C000012C15D103F07EF980498148006805F08D
:1037D00039FC06D27F497E48006805F067FA7C49CB
:1037E00008607B4801687C4805F060FA7B49086006
:1037F00010BD2DE9F0417A48006800287ED14FF4D1
:103800008050784908607848007808B9012000E0C5
:103810000020754908707548007801280BD174485C
:103820000078401CC0B272490870032803D1002000
:1038300008706E4908706C480078012822D1FFF7A3
:10384000CAF86C4908606C480068401C6A49086006
:103850006A4800686749096808446849086066481A
:10386000006864280BD108460068642190FBF1F0E1
:10387000634908600020614908605F4908600020D2
:10388000BDE8F0815F48FFF7E6F95F490968084441
:103890005D4908604FF08040FFF7DDF95B4909683A
:1038A00008445A4908605848006859490860574810
:1038B00000685849086056490968574A1268891AC9
:1038C0004FF47A725143642201FB02F004F0BDFE12
:1038D0000646524A524B04F0E3FE044604F086FECC
:1038E000504908604B4909684F4A1268891A4FF4D9
:1038F0007A725143642201FB02F000E047E004F0D9
:10390000A4FE0646494A4A4B04F0CAFE044604F0A7
:103910006DFE484908603E4800683F4908603D48E0
:1039200000684149086044480078FFF747FFFFF707
:1039300036FFC820FEF7D8FF2848006805F01AFBBC
:1039400010B91E20FEF7D0FFFFF7C6FE03F0CAFD38
:10395000FFF7A3FE2A480068FFF788FE30B9114838
:1039600001680F480068FFF74EFE10E000200C4988
:1039700008600C4908600749091F08600649C1F83A
:10398000BC010449083908600349C1F8B0010020AE
:1039900076E70000BC81214200802142342C0140A6
:1039A000280000202C0000201A0000201500002014
:1039B00019000020500100205401002016000020B2
:1039C000A2FEFFFF1700002018000020000010C119
:1039D000E80000200000B443000010413400002043
:1039E00030012142140401409400002039000020DD
:1039F00038000020980000209C000020A00000203B
:103A00003000002000080040640000206800002012
:103A10006C000020700000207400002054CBEF9751
:103A2000C3AC1F3F48010020780000207FD8F3B1CD
:103A300092C1273F4C0100201400002038B50446F5
:103A4000FB4890F82400C0B114B10220009001E0BE
:103A500000200090F64A1268D17BF54A526810782F
:103A60006B460122FFF75AFA10B14FF0FF3038BD14
:103A70009DF80010EE48417423E0ED48807A10B9BB
:103A80004FF0FF30F3E724B1E948407C08B1002053
:103A9000EDE714B10120009001E000200090E44A1D
:103AA0001268D17BE24A526810786B460122FFF718
:103AB00035FA10B14FF0FF30D9E79DF80010DC481F
:103AC00041740020D3E738B5002419E0D8480068D5
:103AD000C07AA04204D0D6480068407DA04200D100
:103AE0000CE0D349496808786B4601222146FFF76C
:103AF00079FA10B14FF0FF3038BD00BF601CC4B27E
:103B0000CB4840680079A042E0DC0020F4E770B5C3
:103B100004460D46C6480068C07AA04204D0C44896
:103B20000068407DA04202D14FF0FF3070BDC04818
:103B300040680079A04202DC4FF0FF30F6E7BC4954
:103B4000496808782B4601222146FFF74BFAEDE73A
:103B500038B50446B64890F82300A04201D10020B1
:103B600038BD14B13020009001E000200090B04832
:103B7000807C20B19DF8000040F002000090AC482D
:103B800090F8220020B19DF8000040F080000090E5
:103B9000A74A1268117DA64A526810786B46012226
:103BA000FFF7BCF910B14FF0FF30D9E7A04880F81B
:103BB00023400020D4E738B5044604F0700010B16B
:103BC0000120009005E014B10020009001E04020A9
:103BD0000090974A1268917C954A526810786B461B
:103BE0000122FFF79BF920B1002191488172481E04
:103BF00038BD9DF8000020F040018D480173002081
:103C0000009004F0400020B99DF8000040F004004E
:103C1000009004F0200020B99DF8000040F0020060
:103C2000009004F0100020B99DF8000040F0010061
:103C3000009004F0080020B99DF8000040F0380022
:103C400000907B4A1268D17C794A526810786B46A2
:103C50000122FFF763F920B1002175488172481EE7
:103C6000C6E724B1082C02D00020FFF771FF70488E
:103C70008472002101753220FEF721FC0020B7E795
:103C800038B504466A48807CA04201D1002038BD86
:103C9000002C46D0664A12681179654A526810783D
:103CA0006B460122FFF79EF910B14FF0FF30EEE7AF
:103CB0009DF8000020F0200000905D4A1268117904
:103CC0005B4A526810786B460122FFF727F910B162
:103CD0004FF0FF30DBE70320FEF7F1FB02200090FE
:103CE000534890F8220020B19DF8000040F0800079
:103CF00000904F4890F8230020B19DF8000040F05C
:103D0000300000904A4A1268117D494A5268107882
:103D10006B460122FFF702F9002851D04FF0FF3027
:103D2000B5E7434A12681179414A526810786B46E8
:103D30000122FFF757F910B14FF0FF30A7E73C48D9
:103D4000807A00F0010028B19DF8000040F02000CA
:103D5000009004E09DF8000020F020000090344A1C
:103D600012681179324A526810786B460122FFF7C7
:103D7000D5F810B14FF0FF3089E70320FEF79FFB25
:103D80002B4890F8220010B18020009001E0002024
:103D90000090274890F8230020B19DF8000040F0E3
:103DA00030000090224A1268117D214A5268107832
:103DB0006B460122FFF7B2F810B14FF0FF3066E713
:103DC0001B488474002062E708B51948807A10B94E
:103DD0004FF0FF3008BD00200090154A1268D17BDB
:103DE000134A526810786B460122FFF797F810B11A
:103DF0004FF0FF30EEE70E4A126851790C4A5268D4
:103E000010786B460122FFF789F810B14FF0FF30B0
:103E1000E0E7074A12681179054A526810786B4644
:103E20000122FFF77BF828B14FF0FF30D2E7000006
:103E3000A4000020F74890F82400002850D00C205F
:103E40000090F44A12681179F24A526810786B4671
:103E50000122FFF763F810B14FF0FF30BAE7C0203E
:103E60000090EC48807A00F0010020B19DF800003D
:103E700040F020000090E74A12681179E54A526844
:103E800010786B460122FFF749F810B14FF0FF3070
:103E9000A0E7E048407C10B10220009001E0002043
:103EA0000090DC4A1268D17BDA4A526810786B467F
:103EB0000122FFF733F810B14FF0FF308AE70020FE
:103EC0000090D44A12685179D24A526810786B46F1
:103ED0000122FFF723F8002852D04FF0FF3079E796
:103EE00004200090CB4A12681179CA4A52681078AF
:103EF0006B460122FFF712F810B14FF0FF3069E76F
:103F0000C448807C20B9C348807A00F0010010B911
:103F10004020009001E060200090BE4A12681179B4
:103F2000BC4A526810786B460122FEF7F7FF10B1C9
:103F30004FF0FF304EE7B748407C10B101200090B1
:103F400001E000200090B34A1268D17BB14A526868
:103F500010786B460122FEF7E1FF10B14FF0FF3001
:103F600038E7AC4A12685179AA4A52681078A94BCE
:103F700010330122FEF7D2FF10B14FF0FF3029E7D6
:103F8000002027E770B50446002624F00104A1486C
:103F900090F8240008B1002070BD9E48807A10B9C6
:103FA0004FF0FF30F8E79B48057C807A2040994924
:103FB00008740846007CA04202D04FF0FF3600E0B3
:103FC000002614B99348007D18B10120FFF736FD93
:103FD00002E00020FFF732FD3CB1FFF7F5FE20B113
:103FE0008C4805744FF0FF30D6E73046D4E738B53B
:103FF00004468848807A10B94FF0FF3038BDBC2C99
:1040000002DB0120009015E0622C02DB0220009010
:1040100010E02A2C02DB032000900BE0142C02DBC2
:104020000420009006E00A2C02DB0520009001E04D
:10403000062000907748C07A9DF80010884201D190
:104040000020DBE7734A12689178724A5268107850
:104050006B460122FEF762FF10B14FF0FF30CDE753
:104060009DF800106B48C1720020C7E738B50446C0
:10407000282C02DD4FF0FF3038BDDCB90020FFF7FF
:1040800067FD00208DF8000007208DF80100614ACF
:104090001268917C5F4A526810786B460222FEF7E4
:1040A0003DFF10B14FF0FF30E6E7002159480175A0
:1040B0000020E1E70120FFF74BFD20208DF80000F4
:1040C000012C06D100208DF801000520FFF78FFF9D
:1040D00017E0052C06DC01208DF801000520FFF714
:1040E00086FF0EE0142C06DC02208DF801000A2069
:1040F000FFF77DFF05E003208DF801001420FFF796
:1041000076FF9DF80100072101EB8010C0B28DF809
:104110000100404A1268917C3E4A526810786B4612
:104120000222FEF7FBFE10B14FF0FF30A4E708219A
:104130003848817200210173012101750020FFF7C9
:1041400021FF002098E738B504463248807A10B93C
:104150004FF0FF3038BD2F4890F8240010B14FF0D9
:10416000FF30F7E72B48007D50B134B1282C04DC38
:10417000E0B2FFF77BFF0020ECE70020FFF776FFBF
:10418000042C01DA042404E0B4F57A7F01DD4FF455
:104190007A744FF47A7090FBF4F0401EC0B2009035
:1041A0001C4A126851781B4A526810786B460122EB
:1041B000FEF7B4FE10B14FF0FF30CBE79DF80000E2
:1041C000401C4FF47A7191FBF0F081B21148C1812B
:1041D0000146C9894810FFF70AFF0020BAE738B541
:1041E00004460C48807A10B94FF0FF3038BD022CDD
:1041F00006D0042C07D0082C08D0102C0FD10BE0CF
:10420000002000900EE0082000900BE010200090AD
:1042100008E00000A40000201820009002E04FF009
:10422000FF30E3E700BFF948407A9DF80010B0EB9B
:10423000E10F01D10020D9E7F44A1268D179F34A9D
:10424000526810786B460122FEF768FE10B14FF0FD
:10425000FF30CBE79DF80000C110EC484172002010
:10426000C4E738B50446E948807A10B94FF0FF300A
:1042700038BDFA2C09D0B4F5FA7F09D0B4F57A7FAD
:1042800009D0B4F5FA6F0CD108E0002000900BE0E3
:104290000820009008E01020009005E01820009011
:1042A00002E04FF0FF30E3E700BFD848007A9DF806
:1042B0000010B0EBE10F01D10020D9E7D34A12681A
:1042C0009179D24A526810786B460122FEF726FE99
:1042D00010B14FF0FF30CBE79DF80000C010CB4984
:1042E00008720020C4E71CB580208DF80000C74A82
:1042F0001268917CC54A526810786B460122FEF71D
:104300000DFE10B14FF0FF301CBD6420FEF7D7F852
:1043100000208DF80000BD4A1268917CBB4A5268AB
:1043200010786B460122FEF7F9FD10B14FF0FF3017
:10433000EAE7B64A1268917DB44A526810786B4633
:104340000622FEF74FFE10B14FF0FF30DCE79DF87C
:104350000500C007400F9DF8031001F0010140EA7D
:1043600041009DF8011001F0010140EA010494B1FF
:10437000012C03D10121A548C17431E0022C03D1E5
:104380000021A248C1742BE02146A1A003F010F93E
:104390004FF0FF30B8E79D4A1268D1789B4A5268C7
:1043A00010786B460122FEF71DFE10B14FF0FF3072
:1043B000AAE79DF8000000F00F042CB99E4803F016
:1043C000F7F84FF0FF309FE7042C06D19BA003F0D5
:1043D000EFF801218D48C17402E000218B48C174BF
:1043E000FF218A488172FF2088490872FF2187488F
:1043F0004172C1724FF6FF71C181FF210174817456
:104400000121017380F82210002180F823104175EA
:1044100001751630016041608160163880F8241003
:1044200080F82510C1844FF4FA60FFF71AFF10B12D
:104430004FF0FF3068E70220FFF7D1FE10B14FF0D8
:10444000FF3061E72A20FFF7D2FD10B14FF0FF30B7
:104450005AE73220FFF777FE10B14FF0FF3053E7F5
:104460000020FFF78FFD10B14FF0FF304CE7002028
:10447000FFF706FC10B14FF0FF3045E70020FFF7D3
:104480009AFB002040E770477CB504460D465F4824
:10449000807A00F0700010B94FF0FF307CBD5B4AAD
:1044A0001268117B594A526810786B460622FEF753
:1044B00099FD10B14FF0FF30F0E79DF801009DF835
:1044C000001040EA012000B220809DF803009DF812
:1044D000021040EA012000B260809DF805009DF8BE
:1044E000041040EA012000B2A08015B12846FFF771
:1044F000CAFF0020D2E77CB504460D464348807AC7
:1045000000F0080010B94FF0FF307CBD3F4A126840
:10451000517B3E4A526810786B460622FEF762FDD8
:1045200010B14FF0FF30F0E79DF801009DF800104A
:1045300040EA012000B220809DF803009DF802109F
:1045400040EA012000B260809DF805009DF804104B
:1045500040EA012000B2A08015B12846FFF793FF82
:104560000020D2E72DE9FE4F05460C462748807A09
:1045700018B94FF0FF30BDE8FE8F244A1268917BD6
:10458000224A5268107802AB0222FEF72BFD10B1CE
:104590004FF0FF30EFE79DF809009DF8081040EA62
:1045A000012006B214B12046FFF76DFF1749496894
:1045B000C88804F033FD154901904968B1F9080035
:1045C00004F014FD8346304604F010FD5946009077
:1045D00004F06AFE8246019904F0D6FB81461F4929
:1045E00004F064FB80464FF08F4104F05FFD074606
:1045F00004F0C0FC28600020BDE710B588B0044678
:104600001CB94FF0FF3008B010BD29E0A400002015
:10461000556E737570706F7274656420736F667415
:10462000776172652070726F64756374207265764D
:104630002025642E0A000000C8A1000848616C66AD
:104640002073656E7369746976697479207061721C
:104650007420666F756E642E0D0A000000000C4217
:10466000206830B9606820B9A06810B9002008B08F
:1046700010BDFA494968087806AB03221146FEF7D7
:10468000B1FC10B14FF0FF30F1E79DF818000821A0
:1046900001EB201000F00F00ADF800009DF81900AC
:1046A00001EB201000F00F00ADF802009DF81A0099
:1046B00001EB201000F00F00ADF80400206841006D
:1046C000BDF90000403091FBF0F000B2ADF81000F1
:1046D00060684100BDF90200403091FBF0F000B28B
:1046E000ADF81200A0684100BDF90400403091FB14
:1046F000F0F000B2ADF81400D8494968087806AB6C
:1047000006221146FEF76EFC10B14FF0FF30AEE707
:104710009DF819009DF8181040EA012000B2ADF88C
:1047200008009DF81B009DF81A1040EA012000B215
:10473000ADF80A009DF81D009DF81C1040EA01200C
:1047400000B2ADF80C00BDF81000BDF80810084428
:1047500000B2ADF81000BDF81200BDF80A10084410
:1047600000B2ADF81200BDF81400BDF80C100844FA
:1047700000B2ADF81400BDF81000000A8DF8180062
:10478000BDF81000C0B28DF81900BDF81200000A83
:104790008DF81A00BDF81200C0B28DF81B00BDF8EC
:1047A0001400000A8DF81C00BDF81400C0B28DF88A
:1047B0001D00AA494968087806AB06221146FEF793
:1047C000ADFB10B14FF0FF3051E700204FE701463D
:1047D000A248007A30B1012807D0022809D0032866
:1047E0000FD10AE0FA2008800EE04FF4FA7008803A
:1047F0000AE04FF47A70088006E04FF4FA6008800F
:1048000002E00020088000BF00BF00207047014682
:104810009248407A30B1012807D0022808D00328F6
:104820000CD108E0022008700BE00420087008E0BA
:104830000820087005E01020087002E04FF0FF30FB
:10484000704700BF8548C07C18B108784006000E4C
:1048500008700020F4E701468048C07A082817D283
:10486000DFE800F01704070A0D101318BC200880B9
:1048700013E06220088010E02A2008800DE0142058
:1048800008800AE00A20088007E00520088004E08C
:1048900000BF00BF0020088000BF00BF002070479D
:1048A00001466E4890F8240010B14FF0FF30704779
:1048B0006A48C08908800020F9E701460020088086
:1048C000401E704701464FF0FF3070470146634875
:1048D000007A30B1012807D0022808D003280CD173
:1048E00008E05F4808600BE05E48086008E05E484A
:1048F000086005E05D48086002E04FF0FF30704757
:1049000000BF0020FBE701465448407A30B101283F
:1049100008D002280AD0032810D10BE04FF48040C1
:1049200008800EE041F69C7008800AE04FF4805049
:10493000088006E04FF40060088002E04FF0FF308E
:10494000704700BF4548C07C10B1088840100880FF
:104950000020F5E701464148007C087000207047C0
:1049600001463E48807A10B10120087001E0002025
:1049700008700020704738B504463848807A10B96E
:104980004FF0FF3038BD354A1268117C334A526807
:1049900010786B460222FEF725FB10B14FF0FF3076
:1049A000F0E79DF801009DF8001040EA012000B2F8
:1049B00020800020E6E72DE9FE4F07468846924614
:1049C0001D46DDF830B000260024244890F824006D
:1049D00010B1601EBDE8FE8F002028701F48807A4D
:1049E00010B94FF0FF30F5E71C48007C10B94FF0CC
:1049F000FF30EFE71948007C00F0400008B1B01C20
:104A0000C6B21648007C00F0200008B1B01CC6B247
:104A10001248007C00F0100008B1B01CC6B20F486C
:104A2000007C00F0080008B1B01DC6B20B4A126845
:104A3000917A0A4A526810786B460222FEF7D2FA3F
:104A400010B14FF0FF30C5E79DF801009DF8001050
:104A500040EA0129B1450BDA0020BBE7A4000020A1
:104A60000000034300008342333303423333834166
:104A7000FC4840684088B9EB600F17DDF94A1268BE
:104A8000517CF84A526810786B460122FEF7AAFA68
:104A900010B14FF0FF309DE79DF8000000F01000CE
:104AA00020B1FFF791F96FF0010093E75046FFF74F
:104AB000EAFCEC4A1268D17AEA4A526810786B46EE
:104AC0003246FEF78FFA10B14FF0FF3082E799FBC4
:104AD000F6F0401E8BF8000000202870B4422AD067
:104AE000E048007C00F0080028B3601C1DF80000BE
:104AF0001DF8041040EA012000B2A8F80000E01CF4
:104B00001DF80010A01C1DF8000041EA002000B2B2
:104B1000A8F80200601D1DF80010201D1DF80000FF
:104B200041EA002000B2A8F80400287840F008000C
:104B30002870A01D84B2B44213D0CA48007C00F093
:104B4000400070B1601C1DF800001DF8041040EA20
:104B5000012000B23880287840F040002870A01C66
:104B600084B2B44213D0BF48007C00F0200070B182
:104B7000601C1DF800001DF8041040EA012000B27E
:104B80007880287840F020002870A01C84B2B442BD
:104B900013D0B448007C00F0100070B1601C1DF808
:104BA00000001DF8041040EA012000B2B880287807
:104BB00040F010002870A01C84B200200AE7F8B56D
:104BC00004460F461646A74890F8240010B94FF047
:104BD000FF30F8BDA348807A10B94FF0FF30F8E7F6
:104BE000A04A1268917A9F4A526810786B46022256
:104BF000FEF7F8F910B14FF0FF30EAE79DF8010039
:104C00009DF8001040EA0125A54203DA002030702B
:104C1000401EDEE7934840684088B5EB600F17DD23
:104C2000904A1268517C8F4A526810786B46012274
:104C3000FEF7D8F910B14FF0FF30CAE79DF8000039
:104C400000F0100020B1FFF7BFF86FF00100C0E7DF
:104C5000E2B2844B1B68D97A824B5B6818783B467A
:104C6000FEF7C0F910B14FF0FF30B2E795FBF4F05A
:104C7000401E30700020ACE701467A4880F82210D0
:104C8000002070477CB5054676494968087801AB35
:104C900004220D21FEF7A6F908B107207CBD9DF87E
:104CA0000700C0F301109DF8041001F0E00140EA94
:104CB000E1008DF800009DF80700C0F381009DF829
:104CC000051001F0E00140EAE1008DF801009DF8D7
:104CD000070000F003009DF8061001F0E00140EA33
:104CE000E1008DF8020000241CE01DF8040018B952
:104CF000002045F8240013E05B4845F8240006E056
:104D000055F82400594904F0D1F945F824001DF85C
:104D10000400401EC0B20DF804000028F0D100BF0E
:104D2000601CC4B2032CE0DB0020B7E72DE9FE4F86
:104D300006460F4600256846FFF7A4FF002442E020
:104D400056F8240057F82410A0EB010ABAF1000F1E
:104D500001DB514601E0CAF10001084604F046F9C2
:104D600083464FF08F4104F00FF880465DF8240031
:104D7000002104F0CBF816D05DF82410404604F072
:104D800003F882464FF07E5104F08EFA814629F0F6
:104D9000004A3748416A504604F054FA12D20120C2
:104DA000A04005430EE03248C169404604F04AF98C
:104DB00005D32F48016A404604F044FA02D201208C
:104DC000A0400543641C032CBADB2846BDE8FE8FD7
:104DD0002DE9FC5F06460F46002522494968087800
:104DE00001AB03220D21FEF7FDF810B10720BDE84D
:104DF000FC9F9DF8040000F01F008DF804009DF852
:104E0000050000F01F008DF805009DF8060000F079
:104E10001F008DF80600002462E056F8240057F8C1
:104E20002410A0EB010BBBF1000F01DB594601E0A0
:104E3000CBF10001084604F0D9F84FF08F41009003
:104E400003F0A2FF814601A8005DC0B308490868CD
:104E500004F0E4F883465946064803F095FF80467F
:104E60000FE00000A40000207B14AE3E1D5A843FDA
:104E7000AC94000800B04C45FE49404604F016F9D9
:104E8000804601A8005D401EC0B201A90855002857
:104E9000F2D14146484603F077FF83464FF07E51FA
:104EA00004F002FA82462AF0004BF3488169584622
:104EB00004F0C8F913D20120A04005430FE0FFE73A
:104EC000ED480169484604F0BDF805D3EA48416958
:104ED000484604F0B7F902D20120A0400543641C03
:104EE000032C9ADB284682E72DE9F04F87B0054670
:104EF0000C46914601208DF8100000208DF811001D
:104F0000DE4A1268917CDD4A5268107804AB0222B6
:104F1000FEF704F820B14FF0FF3007B0BDE8F08F86
:104F2000C820FDF7CCFA00208DF81000D34A126893
:104F3000D17BD24A5268107804AB0122FDF7EEFF14
:104F400010B14FF0FF30E8E7CC4A12685179CB4AF4
:104F50005268107804AB0122FDF7E0FF10B14FF06A
:104F6000FF30DAE7C54A1268917CC44A526810786B
:104F700004AB0122FDF7D2FF10B14FF0FF30CCE7B8
:104F8000BE4A1268D17DBD4A5268107804AB012236
:104F9000FDF7C4FF10B14FF0FF30BEE7B74A12680B
:104FA0001179B64A5268107804AB0122FDF7B6FFBA
:104FB00010B14FF0FF30B0E70C208DF81000AF4A71
:104FC00012681179AD4A5268107804AB0122FDF7DE
:104FD000A5FF10B14FF0FF309FE70F20FDF76FFAEC
:104FE000A648806A407A8DF81000A44A1268917829
:104FF000A24A5268107804AB0122FDF78FFF10B16E
:105000004FF0FF3089E79D48806A007A8DF81000E4
:105010009A4A12685178994A5268107804AB012272
:10502000FDF77CFF10B14FF0FF3076E7B9F1000FCC
:1050300007D09248806A807A40F0E0008DF8100036
:1050400004E08E48806A807A8DF810008B4A1268DE
:1050500091798A4A5268107804AB0122FDF75EFF0D
:1050600010B14FF0FF3058E7B9F1000F07D0834877
:10507000806AC07A40F0E0008DF8100003E07E48BE
:10508000C07A8DF810007D4A1268D1797B4A526847
:10509000107804AB0122FDF741FF10B14FF0FF3053
:1050A0003BE7B9F1000F02D0C820FDF708FA402015
:1050B0008DF81000714A12681179704A52681078A0
:1050C00004AB0122FDF72AFF10B14FF0FF3024E7B7
:1050D00078208DF81000694A12685179674A526841
:1050E000107804AB0122FDF719FF10B14FF0FF302B
:1050F00013E761498889FDF7E2F900208DF8100077
:105100005E4A126851795D4A5268107804AB0122F8
:10511000FDF704FF10B14FF0FF30FEE6574A12686A
:10512000917A564A5268107804AB0222FDF75AFF72
:1051300010B14FF0FF30F0E69DF811009DF810100F
:1051400040EA012B0C209BFBF0F0C6B20020A860C7
:1051500068602860A06060602060824665E0474A21
:105160001268D17A454A5268107804AB0C22FDF7D8
:1051700039FF10B14FF0FF30CFE69DF811009DF8D8
:10518000101040EA012000B2ADF808009DF81300AD
:105190009DF8121040EA012000B2ADF80A009DF817
:1051A00015009DF8141040EA012000B2ADF80C0083
:1051B000BDF90810206808442060BDF90A10606835
:1051C00008446060BDF90C10A0680844A0609DF818
:1051D00017009DF8161040EA012000B2ADF800005B
:1051E0009DF819009DF8181040EA012000B2ADF8B2
:1051F00002009DF81B009DF81A1040EA012000B241
:10520000ADF80400BDF90010286808442860BDF915
:105210000210686808446860BDF90410A868084472
:10522000A8600AF1010000F0FF0AB24597DB1248BE
:10523000D0F800C02868C117090441EA10410704EA
:1052400062460023384602F08EF932460023CDE94B
:10525000020102F088F928600748D0F800C06868A9
:10526000C117090441EA1041070462460023384689
:1052700006E0000054E3853FAC940008A400002041
:1052800002F071F932460023CDE9020102F06BF918
:105290006860FE48D0F800C0A868C117090441EA58
:1052A0001041070462460023384602F05CF932469A
:1052B0000023CDE9020102F056F9A860F348D0F8C6
:1052C00004C02168C817000440EA11480F04624670
:1052D00000233846414602F046F932460023CDE924
:1052E000020102F040F92060E848D0F804C060688C
:1052F000C117090441EA10410704624600233846F9
:1053000002F031F932460023CDE9020102F02BF917
:105310006060DE48D0F804C0A068C117090441EA03
:105320001041070462460023384602F01CF9324659
:105330000023CDE9020102F016F9A060A068002860
:1053400004DDA068A0F58030A06003E0A06800F54F
:105350008030A0600020E0E538B50446CC4890F8E5
:105360002400A04201D1002038BD24B3C84890F8E1
:10537000250010B94FF0FF30F6E70020FEF75EFB86
:105380000020FEF77DFCC249C88CFEF7DCFE002041
:105390000090BF49496808786B4601222321FDF738
:1053A000BDFD0121BA4880F824100120FEF746FB1C
:1053B000FEF70AFD13E00020FEF740FBB448007C36
:1053C0000090B349496808786B4601222321FDF714
:1053D000A5FD0021AE4880F82410FEF7F5FC002062
:1053E000C2E72DE9F04F8DB083460F4602200C90A6
:1053F000A74890F8240020B10020FFF7ADFF012658
:1054000000E0002603A8FFF7E2F905A8FFF7FFF97F
:1054100001A8FFF720FA02A8FFF742FA9C4890F88B
:105420000AA004A8FFF796FA002407E000223946F4
:105430005846FFF759FD00B902E0641C022CF5DB69
:1054400000BF022C01D1002528E0002407E0012242
:1054500006A909A8FFF748FD00B902E0641C022C68
:10546000F5DB00BF022C01D1002517E006A9384664
:10547000FFF75CFC00F0FF0809A95846FFF7A8FCFD
:1054800000F0FF090025B9F1000F01D145F0010539
:10549000B8F1000F01D145F0020500BFFF207C49A3
:1054A0000872FF217A484172C1724FF6FF71C181C3
:1054B000FF218172017401210173BDF80C00FEF718
:1054C000D0FE9DF81400FEF78AFEBDF80400FEF73A
:1054D0008EFDBDF80800FEF736FE5046FEF76BFB6A
:1054E0009DF81000FEF74EFD16B10120FFF734FFC6
:1054F00028460DB0BDE8F08FF8B504460D461646B7
:1055000016B94FF0FF30F8BD6148807A10B94FF0FE
:10551000FF30F8E720128DF80000E0B28DF80100AE
:105520009DF8010028445A4949684989884202DDAA
:105530004FF0FF30E7E7564A1268117E544A52682E
:1055400010786B460222FDF7E9FC10B14FF0FF30F6
:10555000D9E7EAB24E4B1B68597D4D4B5B68187812
:105560003346FDF7DBFC10B14FF0FF30CBE70020F6
:10557000C9E7F8B504460D46164616B94FF0FF3098
:10558000F8BD4348807A10B94FF0FF30F8E7201299
:105590008DF80000E0B28DF801009DF8010028446C
:1055A0003B4949684989884202DD4FF0FF30E7E70F
:1055B000374A1268117E364A526810786B460222CA
:1055C000FDF7ACFC10B14FF0FF30D9E7EAB2304B39
:1055D0001B68597D2E4B5B6818783346FDF702FD3A
:1055E00010B14FF0FF30CBE70020C9E72DE9F043C1
:1055F00085B005460E4690469946254890F8250008
:1056000020B14FF0FF3005B0BDE8F08316B94FF080
:10561000FF30F8E7002423E0281B102801DD1020CC
:1056200000E0281B87B2321939462046FFF764FF95
:1056300010B14FF0FF30E6E701AA39462046FFF7E8
:1056400098FF10B14FF0FF30DDE730193A4601A95D
:1056500002F02AF810B16FF00100D4E7E01984B22B
:10566000AC42D9DB4FEA28208DF8000008F0FF009B
:105670008DF80100064A1268917E054A526810783A
:105680006B460222FDF74AFC38B103E0AC940008F7
:10569000A40000204FF0FF30B5E701218A4880F8D0
:1056A0002510A0F826900020ADE70146864890F826
:1056B000240008700020704702464FF0FF3070470A
:1056C00001464FF0FF307047F8B505460F461446C7
:1056D000002C70D0B5F5FF5F01DDFF2605E0202D21
:1056E00001DA012601E0C5F3471607B90127282C86
:1056F00002DD4FF0FF30F8BD7348407D28BB724893
:1057000090F8240038B10020FFF726FE01216E48F2
:1057100080F8201003E000216B4880F820106A48D0
:105720001630FFF754F868481830FFF770F86648ED
:105730001A30FFF790F864481C30FFF7B1F8624860
:10574000817A81771F30FFF705F90020FEF776F99F
:105750000020FEF78BFC00208DF800005A4A1268EA
:105760009178594A526810786B460122FDF7D6FBB2
:1057700010B14FF0FF30BEE740208DF80000524AD4
:105780001268D17B504A526810786B460122FDF7AF
:10579000C5FB00B165E08DF800608DF801704A4AE4
:1057A0001268117A484A526810786B460222FDF757
:1057B000B5FB08B155E047E00520FCF780FE424804
:1057C000407A072101EBC000C0B28DF800003E4ACC
:1057D0001268D1793C4A526810786B460122FDF775
:1057E0009DFB00B13DE020208DF80000012C03D18D
:1057F00000208DF801000EE0052C03DC01208DF85F
:10580000010008E0142C03DC02208DF8010002E006
:1058100003208DF801009DF80100072101EB8010A5
:10582000C0B28DF80100284A1268917C264A52685D
:1058300010786B460222FDF771FB00B111E00121E7
:1058400021484175002056E71F4A1632002103E027
:10585000505C00B105E0491C0C29F9D34FF0FF3032
:1058600049E7FF2018490872FF2117484172C172A9
:105870004FF6FF71C181FF21817201740121017313
:105880000146887FFEF797F90F49C88AFEF7E9FCC1
:105890000D49087EFEF7A3FC0B49488BFEF7A7FBDA
:1058A0000949888BFEF74FFC0749C87FFEF76AFB62
:1058B000054890F8200010B10120FFF74DFD0021B0
:1058C00001484175002016E7A400002010B5C82348
:1058D0004FF48062F74940F6F630FFF787FE10BDBF
:1058E00010B586B00446F4A000680390F3A00068E9
:1058F0000290F3A000680190F2A00068009004F00C
:10590000030003A9085C8DF8140003A8C4F3C101C7
:10591000405C8DF8150003A8C4F38111405C8DF83C
:10592000160004F0030002A9085C8DF8100002A81C
:10593000C4F3C101405C8DF8110002A8C4F38111C9
:10594000405C8DF8120005AA032140F22640FFF7C3
:10595000D3FD18B14FF0FF3006B010BD04AA0321EB
:1059600040F22A40FFF7C8FD10B14FF0FF30F3E7D7
:10597000019805900098049004F0040058B19DF837
:10598000140040F001008DF814009DF8100040F064
:1059900001008DF8100004F0200058B19DF81500AA
:1059A00040F001008DF815009DF8110040F0010055
:1059B0008DF8110004F4807058B19DF8160040F085
:1059C00001008DF816009DF8120040F001008DF8DE
:1059D000120005AA03214FF48860FFF78DFD10B176
:1059E0004FF0FF30B8E704AA032140F23140FFF73F
:1059F00083FD10B14FF0FF30AEE7B34804810020C3
:105A0000AAE71FB50446B048007A00F0030054F836
:105A100020000190AC48007A00F0040010B1019819
:105A200040420190A848007AC0F3C10054F8200019
:105A30000290A548007A00F0200010B10298404280
:105A40000290A148007AC0F3811054F8200003901E
:105A50009D48008900F4807010B103984042039083
:105A60009A49019880FB0101800F40EA8100019072
:105A70009649029880FB0110820042EA91700290E0
:105A80009249039880FB0110820042EA91700390D2
:105A90000198000E8DF800000198000C8DF80100AF
:105AA0000198000A8DF802000198C0B28DF8030039
:105AB0006A4604214FF47470FFF71EFD18B14FF0D1
:105AC000FF3004B010BD0298000E8DF8000002985F
:105AD000000C8DF801000298000A8DF8020002986F
